01030005445002990005PETIT MIX KG                            
01030000165000350005MISTURA AZULAO/CURIO KG                 
01030000003000599005AVEIA S/CASCA PASSAROS KG               
01030100000000499005SENHA FRANCESA SPECIAL KG               
01030101000000379005BIG BOSS CARNE KG                       
01030101000000379005BIG BOSS CARNE KG                       
01030110000000599005TRITURADA PASSARO PRETO SABIA KG        
01030120000000599005ALPISTE CANADENSE                       
01030123000000599005OLEOSA BANANA KG                        
01030124000000699005MISTURA GALO CAMP.CARD.AZULAO KG        
01030124200001199005PIXARRO PIMENTA E FRUTAS                
01030124600000849005PAPAGAIO FRUTAS SILVESTRE KG            
01030126800000466005MAGNUS CHIPS KG                         
01030130000000499005PAINCO ARGENTINO KG                     
01030130900000599005GRANULADA BANANA KG                     
01030134700001199005PIXARRO MACA C/CASCA OVO KG             
01030135800000599005VITAMINA FRUTAS&GILO KG                 
01030140000000950005PEDIGREE RACAS PEQ KG                   
01030140400000999005MAX CAT.BUFFET KG                       
01030141000000699005GIRASSOL MEDIO KG                       
01030142000000550005MAGNUS TODO DIA KG                      
01030149000000699005MISTURA COLEIRINHA CURIO KG             
01030150000000699005GIRASSOL GRAUDO SPECIAL KG              
01030155200001099005GOLDEN MINI BITS FILHOTES KG            
01030155300000950005GOLDEN MINI BITS ADULTO KG              
01030155500000950005GOLDEN FORMULA FILHOTE KG               
01030157200000599005OLEOSA MAMAO KG                         
01030160000000299005RACAO CODORNA POSTURA E OVOS KG         
01030161800000999005MAX CAT 6SABORES KG                     
01030165000000350005MISTURA AZULAO/CURIO KG                 
01030170000000240005CRESCIMENTO ENGORDA TRITURADA KG        
01030180000000249005RACAO COELHO GRANULADA KG               
01030000184014990005KITEKAT 20KG                            
01030200000000250005MILHO BONITO KG                         
01030206200000599005OLEOSA LARANJA KG                       
01030210000000299005QUIRELA FINA/MEDIA/GROSSA KG            
01030002259000099005RACAO P/FRANGOS E PINTINHO              
01030225900000099005RACAO P/FRANGOS E PINTINHO              
01030227900000849005MAGNUS CAT FILHOTE KG                   
01030228100000675005MAGNUS PETIT PEQ/RACAS                  
01030228600000550005CHACALZINHO KG                          
01030234900000989005FINOTRATO GOLD KG                       
01030240000000550005CHAMP CARNE&VEGETAL KG                  
01030245000001199005MAGNUS CAT NUGGETS KG                   
01030002467000350005JAPI FILHOTE KG                         
01030246700000350005JAPI FILHOTE KG                         
01030247200000489005DOG CHOW LIGTH KG                       
01030247300000699005MAGNUS CAT C/NUGGETS                    
01030277500000990005PEDIGREE EQUILIBRIO NATURAL             
01030000028000999005BANHEIRO ECOLOGICO CARTOON CAT          
01030281200000649005MAGNUS CARNE KG                         
01030287600000699005MAGNUS CARNE C/NUGGETS KG               
01030291800001299005SAPORITO MIX KG                         
01030300000000599005AVEIA S/CASCA PASSAROS KG               
01030302000000950005DOG CHOW CARNE/VEGETAIS KG              
01030303400000699005MAGNUS FILHOTE LEITE KG                 
01030304000000849005PEDIGREE CARNE E VEGETAL KG             
01030306100000699005MAGNUS FILHOTE VEGETAIS KG              
01030307000000649005MISTURA CALOPSITA/ARGAPONIS KG          
01030307700001399005WHISKAS PEIXE KG                        
01030312200000499005GATAN COQUETEL KG                       
01030003123000449005UNICAT PESCADO KG                       
01030312300000499005GATAN PEIXE KG                          
01030312700001199005WHISKAS CHICKEN KG                      
01030317700001390005WHISKAS FILHOTE KG                      
01030318400000799005FINOTRATO BUFFET KG                     
01030318600000799005FINOTRATO BUFFET RACAS PEQ KG           
01030318900000699005MAGNUS CARNE FILHOTE                    
01030321000000899005NATURALIS FRAN/PERU ADULTO KG           
01030321100000899005NATURALIS FRANG/PERU FILHOTE KG         
01030321200000899005NATURALIS RACAS PEQUENAS KG             
01030326300000899005MAGNUS NATURAL PEQ/RACAS KG             
01030340000000950005PEDIGREE JUNIOR KG                      
01030356200001990005TENEBRIO POTE 30GR                      
01030356262001290005PIXARRO INSETO MEL KG                   
01030359400001299005GOLDEN GATOS FILHOTES KG                
01030378200000890005GOLDEN SPECIAL FRANGO&ARROZ KG          
01030380400001390005CAT CHOW CARNE KG                       
01030388200000550005SPECIAL DOG CARNE KG                    
01030388500000699005SPECIAL DOG VEGETAIS KG                 
01030388600000990005PEDIGREE EQUILIBRIO 7ANOS KG            
01030400000000599005MISTURA PERIQUITO KG                    
01030403300000850005SPECIAL DOG GOLDEN KG                   
01030403400000990005SPECIAL DOG RACAS PEQUENA KG            
01030403500001090005SPECIAL DOG PRIME KG                    
01030403600000899005SPECIAL DOG JUNIOR AO MOLHO KG          
01030403700000899005SPECIAL CAT CARNE KG                    
01030403800000899005SPECIAL CAT PEIXE KG                    
01030403900000899005SPECIAL CAT MIX KG                      
01030412200000990005SPECIAL DOG FILHOTES VEGETAL KG         
01030423900000899005KITEKAT KG                              
01030462100001399005PIXARRO MANGA C/BARATA KG               
01030485000000850005PEDIGREE CARNE & CEREAL KG              
01030500000000699005MISTURA CANARIO KG                      
01030502000001290005FRISKIES SELECAO SABOROSA KG            
01030502100001199005GOLDEN GATO CARNE KG                    
01030519000001490005NATIVOS BANANINHA KG                    
01030519500001990005PIXARRO TENEBRIO PIMENTAO KG            
01030532400001499005SPECIAL CAT PRIME CASTRADO KG           
01030532900001350005GOLDEN GATO CASTR/SALMAO KG             
01030534500001390005CAT CHOW CASTRADOS KG                   
01030534800001390005CAT CHOW AMB.INTERNO KG                 
01030535000001190005MAGNUS CAT CASTRADOS KG                 
01030535400001199005SPECIAL PRIME FILHOTES KG               
01030544500002990005PETIT MIX KG                            
01030555120000990005GOLDEN LIGHT RAC/GRANDES KG             
01030555410000999005QUALIDAY CAT CARNE CASTRADO KG          
01030555760001190005FINOTRATO CAT CASTRADOKG                
01030593000001350005GOLDEN GATO CASTRADO FRANGO             
01030600000000650005VITAMINA AMARELA OVOS E FRUTAS KG       
01030647000000799005MISTURA P/ HASMISTER                    
01030876000000950005DOG CHOW PAPITA KG                      
01030877000000599005MAGNUS VEGETAL KG                       
01030940000000950005DOG CHOW PEQ/RACAS FILHOTES KG          
01030953000000375005NUTRICIONAL BASIC KG                    
01030985000001199005WHISKAS CARNE KG                        
